{
  "address": "0x8C8c08f37957bae052ec39Be490470BfaC1844a6",
  "abi": [
    {
      "inputs": [
        {
          "internalType": "address",
          "name": "vrfCoordinatorV2",
          "type": "address"
        },
        {
          "internalType": "uint256",
          "name": "entranceFee",
          "type": "uint256"
        },
        {
          "internalType": "bytes32",
          "name": "gasLane",
          "type": "bytes32"
        },
        {
          "internalType": "uint64",
          "name": "subscriptionId",
          "type": "uint64"
        },
        {
          "internalType": "uint32",
          "name": "callbackGasLimit",
          "type": "uint32"
        },
        {
          "internalType": "uint256",
          "name": "interval",
          "type": "uint256"
        }
      ],
      "stateMutability": "nonpayable",
      "type": "constructor"
    },
    {
      "inputs": [
        {
          "internalType": "address",
          "name": "have",
          "type": "address"
        },
        {
          "internalType": "address",
          "name": "want",
          "type": "address"
        }
      ],
      "name": "OnlyCoordinatorCanFulfill",
      "type": "error"
    },
    {
      "inputs": [],
      "name": "Raffle__NotEnoughETHEntered",
      "type": "error"
    },
    {
      "inputs": [],
      "name": "Raffle__NotOpen",
      "type": "error"
    },
    {
      "inputs": [],
      "name": "Raffle__TransferFailed",
      "type": "error"
    },
    {
      "inputs": [
        {
          "internalType": "uint256",
          "name": "currentBallance",
          "type": "uint256"
        },
        {
          "internalType": "uint256",
          "name": "numPlayers",
          "type": "uint256"
        },
        {
          "internalType": "uint256",
          "name": "raffleState",
          "type": "uint256"
        }
      ],
      "name": "Raffle__UpkeepNotNeed",
      "type": "error"
    },
    {
      "anonymous": false,
      "inputs": [
        {
          "indexed": true,
          "internalType": "address",
          "name": "player",
          "type": "address"
        }
      ],
      "name": "RaffleEnter",
      "type": "event"
    },
    {
      "anonymous": false,
      "inputs": [
        {
          "indexed": true,
          "internalType": "uint256",
          "name": "requestId",
          "type": "uint256"
        }
      ],
      "name": "RequestRaffleWinner",
      "type": "event"
    },
    {
      "anonymous": false,
      "inputs": [
        {
          "indexed": true,
          "internalType": "address",
          "name": "winner",
          "type": "address"
        }
      ],
      "name": "WinnerPicked",
      "type": "event"
    },
    {
      "inputs": [
        {
          "internalType": "bytes",
          "name": "",
          "type": "bytes"
        }
      ],
      "name": "checkUpkeep",
      "outputs": [
        {
          "internalType": "bool",
          "name": "upkeepNeed",
          "type": "bool"
        },
        {
          "internalType": "bytes",
          "name": "",
          "type": "bytes"
        }
      ],
      "stateMutability": "view",
      "type": "function"
    },
    {
      "inputs": [],
      "name": "enterRaffle",
      "outputs": [],
      "stateMutability": "payable",
      "type": "function"
    },
    {
      "inputs": [],
      "name": "getEntranceFee",
      "outputs": [
        {
          "internalType": "uint256",
          "name": "",
          "type": "uint256"
        }
      ],
      "stateMutability": "view",
      "type": "function"
    },
    {
      "inputs": [],
      "name": "getInterval",
      "outputs": [
        {
          "internalType": "uint256",
          "name": "",
          "type": "uint256"
        }
      ],
      "stateMutability": "view",
      "type": "function"
    },
    {
      "inputs": [],
      "name": "getLatestTimeStamp",
      "outputs": [
        {
          "internalType": "uint256",
          "name": "",
          "type": "uint256"
        }
      ],
      "stateMutability": "view",
      "type": "function"
    },
    {
      "inputs": [],
      "name": "getNumWords",
      "outputs": [
        {
          "internalType": "uint256",
          "name": "",
          "type": "uint256"
        }
      ],
      "stateMutability": "pure",
      "type": "function"
    },
    {
      "inputs": [],
      "name": "getNumberOfPlayers",
      "outputs": [
        {
          "internalType": "uint256",
          "name": "",
          "type": "uint256"
        }
      ],
      "stateMutability": "view",
      "type": "function"
    },
    {
      "inputs": [
        {
          "internalType": "uint256",
          "name": "index",
          "type": "uint256"
        }
      ],
      "name": "getPlayer",
      "outputs": [
        {
          "internalType": "address",
          "name": "",
          "type": "address"
        }
      ],
      "stateMutability": "view",
      "type": "function"
    },
    {
      "inputs": [],
      "name": "getRaffleState",
      "outputs": [
        {
          "internalType": "enum Raffle.RaffleState",
          "name": "",
          "type": "uint8"
        }
      ],
      "stateMutability": "view",
      "type": "function"
    },
    {
      "inputs": [],
      "name": "getRecentWinner",
      "outputs": [
        {
          "internalType": "address",
          "name": "",
          "type": "address"
        }
      ],
      "stateMutability": "view",
      "type": "function"
    },
    {
      "inputs": [],
      "name": "getRequestConfirmations",
      "outputs": [
        {
          "internalType": "uint16",
          "name": "",
          "type": "uint16"
        }
      ],
      "stateMutability": "pure",
      "type": "function"
    },
    {
      "inputs": [
        {
          "internalType": "bytes",
          "name": "",
          "type": "bytes"
        }
      ],
      "name": "performUpkeep",
      "outputs": [],
      "stateMutability": "nonpayable",
      "type": "function"
    },
    {
      "inputs": [
        {
          "internalType": "uint256",
          "name": "requestId",
          "type": "uint256"
        },
        {
          "internalType": "uint256[]",
          "name": "randomWords",
          "type": "uint256[]"
        }
      ],
      "name": "rawFulfillRandomWords",
      "outputs": [],
      "stateMutability": "nonpayable",
      "type": "function"
    }
  ],
  "transactionHash": "0xc613beb5838b4f84adcf602555669eaffeb78a0c19446e12fcfa677df4c70a2d",
  "args": [
    "0x2Ca8E0C643bDe4C2E08ab1fA0da3401AdAD7734D",
    "10000000000000000",
    "0x79d3d8832d904592c0bf9818b621522c988bb8b0c05cdc3b15aea1b6e8db0c15",
    "8805",
    "500000",
    "30"
  ],
  "numDeployments": 1,
  "solcInputHash": "4ba9b948e1a00be9a477a21d57df9a24",
  "bytecode": "0x6101606040523480156200001257600080fd5b5060405162001a7438038062001a748339818101604052810190620000389190620001d1565b858073ffffffffffffffffffffffffffffffffffffffff1660808173ffffffffffffffffffffffffffffffffffffffff1660601b81525050508460a081815250508573ffffffffffffffffffffffffffffffffffffffff1660c08173ffffffffffffffffffffffffffffffffffffffff1660601b815250508360e081815250508267ffffffffffffffff166101008167ffffffffffffffff1660c01b815250508163ffffffff166101208163ffffffff1660e01b815250506000600160146101000a81548160ff021916908360018111156200013d577f4e487b7100000000000000000000000000000000000000000000000000000000600052602160045260246000fd5b02179055504260028190555080610140818152505050505050505062000355565b6000815190506200016f81620002d3565b92915050565b6000815190506200018681620002ed565b92915050565b6000815190506200019d8162000307565b92915050565b600081519050620001b48162000321565b92915050565b600081519050620001cb816200033b565b92915050565b60008060008060008060c08789031215620001eb57600080fd5b6000620001fb89828a016200015e565b96505060206200020e89828a016200018c565b95505060406200022189828a0162000175565b94505060606200023489828a01620001ba565b93505060806200024789828a01620001a3565b92505060a06200025a89828a016200018c565b9150509295509295509295565b6000620002748262000285565b9050919050565b6000819050919050565b600073ffffffffffffffffffffffffffffffffffffffff82169050919050565b6000819050919050565b600063ffffffff82169050919050565b600067ffffffffffffffff82169050919050565b620002de8162000267565b8114620002ea57600080fd5b50565b620002f8816200027b565b81146200030457600080fd5b50565b6200031281620002a5565b81146200031e57600080fd5b50565b6200032c81620002af565b81146200033857600080fd5b50565b6200034681620002bf565b81146200035257600080fd5b50565b60805160601c60a05160c05160601c60e0516101005160c01c6101205160e01c610140516116a3620003d1600039600081816108d601526109880152600061073d0152600061071a015260006106f9015260006106bd0152600081816102fa01526103f7015260008181610337015261038b01526116a36000f3fe6080604052600436106100c25760003560e01c8063473f1ddc1161007f5780636e04ff0d116100595780636e04ff0d1461022557806391ad27b414610263578063e55ae4e81461028e578063fd6673f5146102cb576100c2565b8063473f1ddc146101a457806353a2c19a146101cf5780635f1b0fd8146101fa576100c2565b806309bc33a7146100c7578063115cbaf5146100f25780631fe543e31461011d5780632cfcc53914610146578063320229eb146101505780634585e33b1461017b575b600080fd5b3480156100d357600080fd5b506100dc6102f6565b6040516100e991906112f6565b60405180910390f35b3480156100fe57600080fd5b5061010761031e565b60405161011491906112c0565b60405180910390f35b34801561012957600080fd5b50610144600480360381019061013f91906110a1565b610335565b005b61014e6103f5565b005b34801561015c57600080fd5b506101656105b0565b60405161017291906112f6565b60405180910390f35b34801561018757600080fd5b506101a2600480360381019061019d9190610fc9565b6105ba565b005b3480156101b057600080fd5b506101b9610805565b6040516101c691906111de565b60405180910390f35b3480156101db57600080fd5b506101e461082f565b6040516101f191906112f6565b60405180910390f35b34801561020657600080fd5b5061020f61083e565b60405161021c91906112db565b60405180910390f35b34801561023157600080fd5b5061024c6004803603810190610247919061100e565b610847565b60405161025a92919061123d565b60405180910390f35b34801561026f57600080fd5b50610278610984565b60405161028591906112f6565b60405180910390f35b34801561029a57600080fd5b506102b560048036038101906102b0919061104f565b6109ac565b6040516102c291906111de565b60405180910390f35b3480156102d757600080fd5b506102e0610a19565b6040516102ed91906112f6565b60405180910390f35b60007f0000000000000000000000000000000000000000000000000000000000000000905090565b6000600160149054906101000a900460ff16905090565b7f000000000000000000000000000000000000000000000000000000000000000073ffffffffffffffffffffffffffffffffffffffff163373ffffffffffffffffffffffffffffffffffffffff16146103e757337f00000000000000000000000000000000000000000000000000000000000000006040517f1cf993f40000000000000000000000000000000000000000000000000000000081526004016103de9291906111f9565b60405180910390fd5b6103f18282610a25565b5050565b7f000000000000000000000000000000000000000000000000000000000000000034101561044f576040517fbd4e069500000000000000000000000000000000000000000000000000000000815260040160405180910390fd5b60006001811115610489577f4e487b7100000000000000000000000000000000000000000000000000000000600052602160045260246000fd5b600160149054906101000a900460ff1660018111156104d1577f4e487b7100000000000000000000000000000000000000000000000000000000600052602160045260246000fd5b14610508576040517f1425571c00000000000000000000000000000000000000000000000000000000815260040160405180910390fd5b6000339080600181540180825580915050600190039060005260206000200160009091909190916101000a81548173ffffffffffffffffffffffffffffffffffffffff021916908373ffffffffffffffffffffffffffffffffffffffff1602179055503373ffffffffffffffffffffffffffffffffffffffff167f0805e1d667bddb8a95f0f09880cf94f403fb596ce79928d9f29b74203ba284d460405160405180910390a2565b6000600254905090565b60006105d460405180602001604052806000815250610847565b509050806106695747600080549050600160149054906101000a900460ff16600181111561062b577f4e487b7100000000000000000000000000000000000000000000000000000000600052602160045260246000fd5b6040517fd5cbfdcc00000000000000000000000000000000000000000000000000000000815260040161066093929190611311565b60405180910390fd5b60018060146101000a81548160ff021916908360018111156106b4577f4e487b7100000000000000000000000000000000000000000000000000000000600052602160045260246000fd5b021790555060007f000000000000000000000000000000000000000000000000000000000000000073ffffffffffffffffffffffffffffffffffffffff16635d3b1d307f00000000000000000000000000000000000000000000000000000000000000007f000000000000000000000000000000000000000000000000000000000000000060037f000000000000000000000000000000000000000000000000000000000000000060016040518663ffffffff1660e01b815260040161077e95949392919061126d565b602060405180830381600087803b15801561079857600080fd5b505af11580156107ac573d6000803e3d6000fd5b505050506040513d601f19601f820116820180604052508101906107d09190611078565b9050807fde6349b018d6c03d837b67d9a198a6ba4842546f2295fe963fae141e5dbaef8160405160405180910390a250505050565b6000600160009054906101000a900473ffffffffffffffffffffffffffffffffffffffff16905090565b6000600163ffffffff16905090565b60006003905090565b600060606000600160149054906101000a900460ff166001811115610895577f4e487b7100000000000000000000000000000000000000000000000000000000600052602160045260246000fd5b600060018111156108cf577f4e487b7100000000000000000000000000000000000000000000000000000000600052602160045260246000fd5b14905060007f00000000000000000000000000000000000000000000000000000000000000006002544261090391906113f1565b119050600080600080549050119050600080471190508380156109235750825b801561092c5750815b80156109355750805b955061094086610cee565b856040518060400160405280600381526020017f30783000000000000000000000000000000000000000000000000000000000008152509550955050505050915091565b60007f0000000000000000000000000000000000000000000000000000000000000000905090565b60008082815481106109e7577f4e487b7100000000000000000000000000000000000000000000000000000000600052603260045260246000fd5b9060005260206000200160009054906101000a900473ffffffffffffffffffffffffffffffffffffffff169050919050565b60008080549050905090565b6000808054905082600081518110610a66577f4e487b7100000000000000000000000000000000000000000000000000000000600052603260045260246000fd5b6020026020010151610a789190611541565b90506000808281548110610ab5577f4e487b7100000000000000000000000000000000000000000000000000000000600052603260045260246000fd5b9060005260206000200160009054906101000a900473ffffffffffffffffffffffffffffffffffffffff16905080600160006101000a81548173ffffffffffffffffffffffffffffffffffffffff021916908373ffffffffffffffffffffffffffffffffffffffff1602179055506000600160146101000a81548160ff02191690836001811115610b6f577f4e487b7100000000000000000000000000000000000000000000000000000000600052602160045260246000fd5b0217905550600067ffffffffffffffff811115610bb5577f4e487b7100000000000000000000000000000000000000000000000000000000600052604160045260246000fd5b604051908082528060200260200182016040528015610be35781602001602082028036833780820191505090505b5060009080519060200190610bf9929190610db0565b504260028190555060008173ffffffffffffffffffffffffffffffffffffffff1647604051610c27906111c9565b60006040518083038185875af1925050503d8060008114610c64576040519150601f19603f3d011682016040523d82523d6000602084013e610c69565b606091505b5050905080610ca4576040517fa1d04b3900000000000000000000000000000000000000000000000000000000815260040160405180910390fd5b8173ffffffffffffffffffffffffffffffffffffffff167f5b690ec4a06fe979403046eaeea5b3ce38524683c3001f662c8b5a829632f7df60405160405180910390a25050505050565b610d8481604051602401610d029190611222565b6040516020818303038152906040527f32458eed000000000000000000000000000000000000000000000000000000007bffffffffffffffffffffffffffffffffffffffffffffffffffffffff19166020820180517bffffffffffffffffffffffffffffffffffffffffffffffffffffffff8381831617835250505050610d87565b50565b60008151905060006a636f6e736f6c652e6c6f679050602083016000808483855afa5050505050565b828054828255906000526020600020908101928215610e29579160200282015b82811115610e285782518260006101000a81548173ffffffffffffffffffffffffffffffffffffffff021916908373ffffffffffffffffffffffffffffffffffffffff16021790555091602001919060010190610dd0565b5b509050610e369190610e3a565b5090565b5b80821115610e53576000816000905550600101610e3b565b5090565b6000610e6a610e658461136d565b611348565b90508083825260208201905082856020860282011115610e8957600080fd5b60005b85811015610eb95781610e9f8882610f9f565b845260208401935060208301925050600181019050610e8c565b5050509392505050565b6000610ed6610ed184611399565b611348565b905082815260208101848484011115610eee57600080fd5b610ef98482856114ce565b509392505050565b600082601f830112610f1257600080fd5b8135610f22848260208601610e57565b91505092915050565b60008083601f840112610f3d57600080fd5b8235905067ffffffffffffffff811115610f5657600080fd5b602083019150836001820283011115610f6e57600080fd5b9250929050565b600082601f830112610f8657600080fd5b8135610f96848260208601610ec3565b91505092915050565b600081359050610fae81611656565b92915050565b600081519050610fc381611656565b92915050565b60008060208385031215610fdc57600080fd5b600083013567ffffffffffffffff811115610ff657600080fd5b61100285828601610f2b565b92509250509250929050565b60006020828403121561102057600080fd5b600082013567ffffffffffffffff81111561103a57600080fd5b61104684828501610f75565b91505092915050565b60006020828403121561106157600080fd5b600061106f84828501610f9f565b91505092915050565b60006020828403121561108a57600080fd5b600061109884828501610fb4565b91505092915050565b600080604083850312156110b457600080fd5b60006110c285828601610f9f565b925050602083013567ffffffffffffffff8111156110df57600080fd5b6110eb85828601610f01565b9150509250929050565b6110fe81611425565b82525050565b61110d81611437565b82525050565b61111c81611443565b82525050565b600061112d826113ca565b61113781856113d5565b93506111478185602086016114dd565b6111508161162e565b840191505092915050565b611164816114bc565b82525050565b60006111776000836113e6565b91506111828261163f565b600082019050919050565b61119681611460565b82525050565b6111a58161148e565b82525050565b6111b481611498565b82525050565b6111c3816114a8565b82525050565b60006111d48261116a565b9150819050919050565b60006020820190506111f360008301846110f5565b92915050565b600060408201905061120e60008301856110f5565b61121b60208301846110f5565b9392505050565b60006020820190506112376000830184611104565b92915050565b60006040820190506112526000830185611104565b81810360208301526112648184611122565b90509392505050565b600060a0820190506112826000830188611113565b61128f60208301876111ba565b61129c604083018661118d565b6112a960608301856111ab565b6112b660808301846111ab565b9695505050505050565b60006020820190506112d5600083018461115b565b92915050565b60006020820190506112f0600083018461118d565b92915050565b600060208201905061130b600083018461119c565b92915050565b6000606082019050611326600083018661119c565b611333602083018561119c565b611340604083018461119c565b949350505050565b6000611352611363565b905061135e8282611510565b919050565b6000604051905090565b600067ffffffffffffffff821115611388576113876115ff565b5b602082029050602081019050919050565b600067ffffffffffffffff8211156113b4576113b36115ff565b5b6113bd8261162e565b9050602081019050919050565b600081519050919050565b600082825260208201905092915050565b600081905092915050565b60006113fc8261148e565b91506114078361148e565b92508282101561141a57611419611572565b5b828203905092915050565b60006114308261146e565b9050919050565b60008115159050919050565b6000819050919050565b600081905061145b82611642565b919050565b600061ffff82169050919050565b600073ffffffffffffffffffffffffffffffffffffffff82169050919050565b6000819050919050565b600063ffffffff82169050919050565b600067ffffffffffffffff82169050919050565b60006114c78261144d565b9050919050565b82818337600083830152505050565b60005b838110156114fb5780820151818401526020810190506114e0565b8381111561150a576000848401525b50505050565b6115198261162e565b810181811067ffffffffffffffff82111715611538576115376115ff565b5b80604052505050565b600061154c8261148e565b91506115578361148e565b925082611567576115666115a1565b5b828206905092915050565b7f4e487b7100000000000000000000000000000000000000000000000000000000600052601160045260246000fd5b7f4e487b7100000000000000000000000000000000000000000000000000000000600052601260045260246000fd5b7f4e487b7100000000000000000000000000000000000000000000000000000000600052602160045260246000fd5b7f4e487b7100000000000000000000000000000000000000000000000000000000600052604160045260246000fd5b6000601f19601f8301169050919050565b50565b60028110611653576116526115d0565b5b50565b61165f8161148e565b811461166a57600080fd5b5056fea2646970667358221220e7ff17589e811bd5080a497ef6fe789d59b79800a57b030cb7934a769e4c313264736f6c63430008040033",
  "devdoc": {
    "author": "Patrick Collins",
    "details": "This implements Chainlink VRF v2 and Chainlink keepers",
    "kind": "dev",
    "methods": {
      "checkUpkeep(bytes)": {
        "details": "This is the function the chainlink keeper nodes call they look for `upkeepNeeded` to return true The following should be true in order to return true 1. Our time interval should have passed 2. The lottery should have at least 1 player and should have some ETH 3. Our subscription is funded with LINK 4. The lottery should be in an \"open\" state."
      }
    },
    "title": "A sample Raffle Contract",
    "version": 1
  },
  "userdoc": {
    "kind": "user",
    "methods": {
      "getEntranceFee()": {
        "notice": "View / Pure functions "
      }
    },
    "notice": "This contract is for creating an untamerable decentralized smart contract",
    "version": 1
  },
  "storageLayout": {
    "storage": [
      {
        "astId": 209,
        "contract": "contracts/Raffle.sol:Raffle",
        "label": "s_players",
        "offset": 0,
        "slot": "0",
        "type": "t_array(t_address_payable)dyn_storage"
      },
      {
        "astId": 226,
        "contract": "contracts/Raffle.sol:Raffle",
        "label": "s_recentWinner",
        "offset": 0,
        "slot": "1",
        "type": "t_address"
      },
      {
        "astId": 229,
        "contract": "contracts/Raffle.sol:Raffle",
        "label": "s_raffleState",
        "offset": 20,
        "slot": "1",
        "type": "t_enum(RaffleState)204"
      },
      {
        "astId": 231,
        "contract": "contracts/Raffle.sol:Raffle",
        "label": "s_lastTimeStamp",
        "offset": 0,
        "slot": "2",
        "type": "t_uint256"
      }
    ],
    "types": {
      "t_address": {
        "encoding": "inplace",
        "label": "address",
        "numberOfBytes": "20"
      },
      "t_address_payable": {
        "encoding": "inplace",
        "label": "address payable",
        "numberOfBytes": "20"
      },
      "t_array(t_address_payable)dyn_storage": {
        "base": "t_address_payable",
        "encoding": "dynamic_array",
        "label": "address payable[]",
        "numberOfBytes": "32"
      },
      "t_enum(RaffleState)204": {
        "encoding": "inplace",
        "label": "enum Raffle.RaffleState",
        "numberOfBytes": "1"
      },
      "t_uint256": {
        "encoding": "inplace",
        "label": "uint256",
        "numberOfBytes": "32"
      }
    }
  }
}